:100000000C9434000C9451000C9451000C94510049
:100010000C9451000C9451000C9451000C9451001C
:100020000C9451000C9451000C9451000C9451000C
:100030000C9451000C9451000C9451000C945100FC
:100040000C9451000C9451000C9451000C945100EC
:100050000C9451000C9451000C9451000C945100DC
:100060000C9451000C94510011241FBECFEFD8E026
:10007000DEBFCDBF11E0A0E0B1E0ECE1F3E002C0F3
:1000800005900D92A430B107D9F721E0A4E0B1E0CA
:1000900001C01D92A930B207E1F70E9473010C94D0
:1000A0008C010C9400001092C50081E28093C40082
:1000B00082E08093C0008AE08093C20088E1809350
:1000C000C10008959091C00095FFFCCF8093C600B9
:1000D00008958091C00087FFFCCF8091C6000895ED
:1000E0009091C10091FF07C021E090E08A3A09F0A9
:1000F00020E0822F089580E090E00895813019F487
:1001000082E090E004C0823031F481E090E090938E
:100110000101809300010895009711F42B9A08952E
:10012000019709F429980895809107019091080199
:100130008130910591F082309105D9F0892B29F514
:1001400080E090E00E948C000E9469000E94700094
:10015000892BD9F081E090E007C0299880910401B3
:100160000E94620082E090E0909308018093070172
:10017000089580E090E00E948C000E9469000E9437
:100180007E001092080110920701089587E084B95B
:1001900084B92B9A2C9A08958130910549F46130E5
:1001A000710511F4299A0895672B61F4299808952F
:1001B000029741F46130710511F4289A0895672B74
:1001C00009F4289808958130910529F483B1869522
:1001D0008695869505C0892B39F483B182958F70F9
:1001E00091E08927817001C080E090E008958091BE
:1001F0000201909103018230910579F083309105DD
:10020000C9F00197E9F480910001909101018230D9
:10021000910539F482E090E008C08091000190914E
:100220000101019769F483E090E0909303018093CA
:10023000020106C08091000190910101029751F3E3
:100240008091020190910301019711F42898299857
:100250008091020190910301029709F4289A8091FC
:10026000020190910301039709F4299A089580915E
:10027000040191E0980F9093040190E0089580911B
:10028000050190910601009719F0019709F1089571
:1002900081E090E00E94E300892B21F081E090E072
:1002A0000E94370180E090E00E94E300892B21F05A
:1002B00082E090E00E94370180910001909101015D
:1002C0008130910579F4909306018093050108959A
:1002D0008091000190910101029721F41092060192
:1002E0001092050108950E9453000E94C60080E00C
:1002F00090E00E94E300019709F4289A81E090E0E1
:100300000E94E300019709F428980E9494000E943B
:0C031000F7000E943F01EBCFF894FFCFF4
:04031C0002000100DA
:00000001FF
