:100000000C9434000C9446000C9446000C9446006A
:100010000C9446000C9446000C9446000C94460048
:100020000C9446000C9446000C9446000C94460038
:100030000C9446000C9446000C9446000C94460028
:100040000C9446000C9446000C9446000C94460018
:100050000C9446000C9446000C9446000C94460008
:100060000C9446000C94460011241FBECFEFD8E03C
:10007000DEBFCDBF21E0A0E0B1E001C01D92A930FC
:10008000B207E1F70E9444010C944F010C94000068
:100090001092C50081E28093C40082E08093C0008A
:1000A0008AE08093C20088E18093C1000895909116
:1000B000C00095FFFCCF8093C60008958091C000DA
:1000C00087FFFCCF8091C60008959091C10091FFF9
:1000D00007C021E090E08A3A09F020E0822F0895DD
:1000E00080E090E00895813031F482E090E09093D8
:1000F0000101809300010895009711F42B9A08954F
:10010000019709F4299808958091020190910301C3
:100110008130910591F082309105D9F0892B29F534
:1001200080E090E00E947C000E945E000E946500DA
:10013000892BD9F081E090E007C0299880910601D1
:100140000E94570082E090E09093030180930201A7
:10015000089580E090E00E947C000E945E000E9472
:1001600073001092030110920201089587E084B990
:1001700084B92B9A2C9A08958130910549F4613005
:10018000710511F4299A0895672B61F4299808954F
:10019000029741F46130710511F4289A0895672B94
:1001A00009F4289808958130910529F483B1869542
:1001B0008695869505C0892B39F483B182958F7019
:1001C00091E08927817001C080E090E008958091DE
:1001D0000701909108018230910579F083309105F3
:1001E000C9F00197E9F480910001909101018230FA
:1001F000910539F482E090E008C08091000190916F
:100200000101019769F483E090E0909308018093E5
:10021000070106C08091000190910101029751F3FE
:100220008091070190910801019711F4289829986D
:100230008091070190910801029709F4289A809112
:10024000070190910801039709F4299A0895809174
:10025000060191E0980F9093060190E0089581E0E7
:1002600090E00E94D300892B21F081E090E00E9471
:10027000270180E090E00E94D300892B21F082E0EA
:1002800090E00C94270108950E9448000E94B60057
:100290000E9484000E94E7000E942F01F9CFF89489
:0202A000FFCF8E
:00000001FF
