:100000000C9434000C943E000C943E000C943E0082
:100010000C943E000C943E000C943E000C943E0068
:100020000C943E000C943E000C943E000C943E0058
:100030000C943E000C943E000C943E000C943E0048
:100040000C943E000C943E000C943E000C943E0038
:100050000C943E000C943E000C943E000C943E0028
:100060000C943E000C943E0011241FBECFEFD8E04C
:10007000DEBFCDBF0E944F000C9452000C940000D4
:100080001092C50081E28093C40082E08093C0009A
:1000900086E08093C20088E18093C100089580E0EB
:0800A00090E00895F894FFCFF1
:00000001FF
