:100000000C9434000C943E000C943E000C943E0082
:100010000C943E000C943E000C943E000C943E0068
:100020000C943E000C943E000C943E000C943E0058
:100030000C943E000C943E000C943E000C943E0048
:100040000C943E000C943E000C943E000C943E0038
:100050000C943E000C943E000C943E000C943E0028
:100060000C943E000C943E0011241FBECFEFD8E04C
:10007000DEBFCDBF0E9459000C945E000C940000BE
:100080001092C50081E28093C40082E08093C0009A
:100090008AE08093C20088E18093C1000895909126
:1000A000C00095FFFCCF92E09093C1008093C60002
:1000B00008950E94400080E090E00895F894FFCFFA
:00000001FF
