:100000000C9434000C9446000C9446000C9446006A
:100010000C9446000C9446000C9446000C94460048
:100020000C9446000C9446000C9446000C94460038
:100030000C9446000C9446000C9446000C94460028
:100040000C9446000C9446000C9446000C94460018
:100050000C9446000C9446000C9446000C94460008
:100060000C9446000C94460011241FBECFEFD8E03C
:10007000DEBFCDBF21E0A0E0B1E001C01D92A730FE
:10008000B207E1F70E9425010C942A010C940000AC
:100090001092C50081E28093C40082E08093C0008A
:1000A0008AE08093C20088E18093C1000895909116
:1000B000C00095FFFCCF8093C60008958091C000DA
:1000C00087FFFCCF8091C60008959091C10091FFF9
:1000D00007C021E090E08A3A09F020E0822F0895DD
:1000E00080E090E008950895009711F42B9A089508
:1000F000019709F4299808958091020190910301D4
:100100008130910591F082309105D9F0892B19F554
:1001100080E090E00E9474000E945E000E946500F2
:10012000892BC9F081E090E007C0299880910401F3
:100130000E94570082E090E09093030180930201B7
:10014000089580E090E00E9474000E945E0010928A
:10015000030110920201089587E084B984B92C9AB2
:100160002D9A08958130910549F46130710511F49B
:10017000299A0895672B61F429980895029741F40C
:100180006130710511F4289A0895672B09F42898B5
:1001900008958130910521F483B182958F7006C056
:1001A000892B41F483B182958695877091E08927E8
:1001B000817001C080E090E00895809105019091E8
:1001C00006018230910579F083309105C9F00197DD
:1001D000E9F480910001909101018230910539F498
:1001E00082E090E008C080910001909101010197A8
:1001F00069F483E090E0909306018093050106C0C6
:100200008091000190910101029751F380910501C5
:1002100090910601019711F4289829988091050181
:1002200090910601029709F4289A80910501909116
:100230000601039709F4299A08958091040191E039
:10024000980F9093040190E008950E9448000E9446
:08025000AC00FFCFF894FFCFD2
:00000001FF
