:100000000C9434000C9446000C9446000C9446006A
:100010000C9446000C9446000C9446000C94460048
:100020000C9446000C9446000C9446000C94460038
:100030000C9446000C9446000C9446000C94460028
:100040000C9446000C9446000C9446000C94460018
:100050000C9446000C9446000C9446000C94460008
:100060000C9446000C94460011241FBECFEFD8E03C
:10007000DEBFCDBF21E0A0E0B1E001C01D92A630FF
:10008000B207E1F70E9491000C949E000C940000CE
:100090001092C50081E28093C40082E08093C0008A
:1000A0008AE08093C20088E18093C1000895909116
:1000B000C00095FFFCCF8093C600089582E0809336
:1000C000C1000C94480087E084B984B92C9A2D9A19
:1000D00008958130910549F46130710511F4299A30
:1000E0000895672B61F429980895029741F46130CF
:1000F000710511F4289A0895672B09F4289808953A
:100100008130910521F483B18295817008C0892BDB
:1001100029F483B185FB882780F901C080E090E055
:1001200008950E946300299828981D9902C0299A71
:1001300028981C9BFACF289A2998F7CFF894FFCFDC
:00000001FF
